:020000040000FA
:030000000200E318
:030013000207DC05
:0300330002070EB3
:03003B0002083880
:03004B0002089F09
:03006B000205EE9D
:03007B0002067EFC
:1000830002079E00000080FB120113B90003020067
:10009300CDE490030178CE79028002F0A3D8FCD995
:1000A300FA9004CEAA82AB83900116783979018045
:1000B30015E493A3AC82AD838A828B83F0A3AA82D7
:1000C300AB838C828D83D8E9D9E775821D75830C48
:1000D30074001200F575828675830074001200F5B2
:1000E30075D00075813F751001751103759F00026E
:1000F300008BC09FF59FE473D09F22D083D082C032
:100103009FE493C0E0740193C0E0740293F59F22CF
:10011300790122FF00000000000000000000000041
:1001230000000080250000A50600A000FF00EE5A95
:10013300A50600A0FF0000EE5AA50600A00000FFE0
:10014300EE5AA50600A0000000EE5A1200FE590F59
:10015300001200FE7610001200FEFF10001200FED7
:10016300B512001200FE5F12001200FECF12001241
:1001730000FED412001200FE9512001200FEFC11C4
:10018300001200FE0C12001200FE3812001200FED4
:100193001311001200FE4211001200FE581100124A
:1001A30000FE6F11001200FE8611001200FEAA115C
:1001B300001200FEB311001200FEC811001200FE6F
:1001C300DD11001200FE770D001200FE840E0012F6
:1001D30000FE6A09001200FEA409001200FEC9090C
:1001E300001200FE080B001200FE1D0B001200FEA1
:1001F3005D0B001200FE9D0B001200FEDD0B00E400
:10020300936670130874019366700C087402936606
:100213007005087403936622C3E4939608740193EC
:10022300960874029396087403939622E0FAA3E067
:10023300FBA3E0FCA3E0FD22EAF0A3EBF0A3ECF0C8
:10024300A3EDF022CAC0E0E0A3C582CCC582C5837A
:10025300CDC583F0A3C582CCC582C583CDC583DA62
:10026300E6D0E0CA22700422600D18C6C333C60864
:10027300C633C6D5E0F41822251010AF08F5104098
:100283000215118008F51040021511D2AF22C0D01B
:10029300251010AF08F510500205118008F5105015
:1002A300020511D2AFD0D022E4732510C582C0E07D
:1002B300E51134FFC583C0E0E510C3958224F8102F
:1002C300AF0885831185821080088583118582108C
:1002D300D2AFCEF0A3E520F0A37808E608F0A3DEC2
:1002E300FAEFF0A3E58124FAF8E608F0A3E608F0B4
:1002F300A3E608F0A30808E608F0A3E608F0A315B0
:10030300811581D0E0FED0E0F8158115811581E8D3
:10031300C0E0EEC0E022851183851082E0A3FEE0F9
:10032300A3F5207808E0A3F608DFFAE0A3FFE0A333
:10033300C0E0E0A3C0E0E0A3C0E0E0A3C0E0E0A32E
:10034300C0E010AF08858210858311800885821074
:10035300858311D2AFD083D0820200FBC0D0251099
:10036300C582C0E0E51134FFC583C0E0E510C39545
:100373008224F310AF08858311858210800885835A
:1003830011858210D2AFC8F0A3E9F0A3EAF0A3EB82
:10039300F0A37908E709F0A3D8FAECF0A3EDF0A3F2
:1003A300EEF0A3EFF0A3D0E0F0A3D0E0F0A3D0E011
:1003B300F0A3E520F0A3E5F0F0A3228511838510D7
:1003C30082E0C0E0A3E0F9A3E0FAA3E0FBA378088E
:1003D300E0F608A3DFFAE0FCA3E0FDA3E0FEA3E060
:1003E300FFA3E0C0E0A3E0C0E0A3E0F5D0A3E0F505
:1003F30020A3E0A3F5F010AF088583118582108058
:1004030008858311858210D2AFD082D083D0E0F8E3
:10041300D0E032D083D082E9C0E0E493A3C386F076
:10042300C5F095F0F908E493A386F0C5F095F07054
:100433000BE493A3C3994005E9048002A3E475F098
:1004430002A42582F582E5F03583F583D0E0F9E453
:1004530093A3C0E0E493C0E022D083D082ECC0E059
:10046300EDC0E0E493A3FCE493A3FDED4C600D1217
:1004730004A8EC24FFFCED34FFFD80EFE493A3FC20
:10048300E493A3FDED4C600D1204E7EC24FFFCEDB7
:1004930034FFFD80EFD0E0FDD0E0FCE493A3C0E0A7
:1004A300E493C0E022C0E0C3E493960874019396FA
:1004B30018400FE49366700808740193661870007F
:1004C3007019A3A3C3E49396087401939618A3A386
:1004D300400DD0E0D0E0D0E0020498A3A3A3A3A3EF
:1004E300A3D0E022C0E0C0F088F0E493667008086F
:1004F30074019366187000A8F0A3A3700BD0F0D01A
:10050300E0D0E0D0E0020498A3A3D0F0D0E022D062
:1005130083D082ECC0E0EDC0E0EEC0E0EFC0E0E4E9
:1005230093A3FCE493A3FDE493A3FEE493A3FFEF5F
:100533004E4D4C601512058EEC24FFFCED34FFFD8F
:10054300EE34FFFEEF34FFFF80E5E493A3FCE49376
:10055300A3FDE493A3FEE493A3FFEF4E4D4C60157C
:100563001205CBEC24FFFCED34FFFDEE34FFFEEF70
:1005730034FFFF80E5D0E0FFD0E0FED0E0FDD0E027
:10058300FCE493A3C0E0E493C0E022C0E0C0F088A1
:10059300F012021BA8F04007120202A8F0701AA37F
:1005A300A3A3A312021BA8F0A3A3A3A34013D0F0F9
:1005B300D0E0D0E0D0E0020578A3A3A3A3A3A3A334
:1005C300A3A3A3D0F0D0E022C0E0C0F088F01202D1
:1005D30002A8F0A3A3A3A3700BD0F0D0E0D0E0D087
:1005E300E0020578A3A3D0F0D0E022C0E074F112BA
:1005F300035FC2C5E589607E7E008074750801755E
:100603000900EE7808120268E508AF08E5895F6023
:100613005EEEF87900E875F002A4C8AAF075F00060
:10062300A42AFA75F002E9A42AF9748A28F58274D7
:100633000339F583E0F8A3E0F9E849602EEEF87991
:1006430000E875F002A4C8AAF075F000A42AFA75B0
:10065300F002E9A42AF9748A28F582740339F58330
:10066300E0F8A3E0F58388821202ABEFF452890E1F
:10067300EEC3940840867F020203BEC0E074F11209
:10068300035FC2EBE58A607E7E00807475080175A6
:100693000900EE7808120268E508AF08E58A5F6092
:1006A3005EEEF87900E875F002A4C8AAF075F000D0
:1006B300A42AFA75F002E9A42AF9749A28F5827437
:1006C3000339F583E0F8A3E0F9E849602EEEF87901
:1006D30000E875F002A4C8AAF075F000A42AFA7520
:1006E300F002E9A42AF9749A28F582740339F58390
:1006F300E0F8A3E0F58388821202ABEFF4528A0E8E
:10070300EEC3940840867F020203BEC0E074F11278
:10071300035FC2E8E58B607E7E0080747508017517
:100723000900EE7808120268E508AF08E58B5F6000
:100733005EEEF87900E875F002A4C8AAF075F0003F
:10074300A42AFA75F002E9A42AF974AA28F5827496
:100753000339F583E0F8A3E0F9E849602EEEF87970
:1007630000E875F002A4C8AAF075F000A42AFA758F
:10077300F002E9A42AF974AA28F582740339F583EF
:10078300E0F8A3E0F58388821202ABEFF4528B0EFC
:10079300EEC3940540867F020203BEC0E074F212EA
:1007A300035FA2AFE433FEC2AFE5E9A2E6502090B7
:1007B30003B4E0F8A3E0F9E849600E9003B4E0F86D
:1007C300A3E0F58388821202AB759B0053E9BFEE69
:1007D300A2E092AF7F010203BEC0E0C0D0E8C0E058
:1007E300E9C0E0C082C083E5C1C0E0900437E0F80F
:1007F300790074B628F582740339F583D0E0F0905C
:100803000436E0F8900437E0687006E59590043804
:10081300F0900437E02401900437F0C3948040063D
:100823009004377400F0D083D082D0E0F9D0E0F8A0
:10083300D0D0D0E032C0E0C0D0E8C0E0C008C009EA
:10084300C082C0839004B9E0F89004BAE068700BEA
:10085300539AFB9004BB7401F08031C2E99004B950
:10086300E0F508740125089004B9F075090074399E
:100873002508F58274043509F583E0F5C19004B9C0
:10088300E0C3948040069004B97400F0D083D08212
:10089300D009D008D0E0F8D0D0D0E032C0E074F175
:1008A30012035F53AFFE9004CCE02401F0A3E034C5
:1008B30000F09004CBE0604E9004CCE0F508A3E098
:1008C300F509780812045C00000400C800E00890F1
:1008D30001EA085802F4082003FE0809097590008C
:1008E300D2911201F0801F759000D2901201EA801C
:1008F30015759000D2941201F6800B759000D29377
:100903009004CB7400F09004CAE0603F9004CCE004
:10091300F508A3E0F509780812045C00000200C89A
:10092300002C0990013B094E0975900079011201D1
:100933007879021201788013759000790312017897
:1009430079041201789004CA7400F09004CCC3E0D7
:100953009421A3E09403400A9004CC7400F0A374A0
:1009630000F07F020203BEC082C0839004C2740001
:10097300F0A37400F09004C47400F09004C07400F9
:10098300F0A37400F09004C57401F07AC07B0412E4
:100993000154E9640160F412015AD083D082020049
:1009A300FB53F4E053FEFB43FE1B53F3FD53FDFDEA
:1009B30075900053F47F53F5FE43FE8043FF01C25D
:1009C30097C2A00200FBC082C083A2925003020A16
:1009D300677A0A7B0012018AA2925003020A67A275
:1009E3009250FC9004C6C3E09490A3E09401503A63
:1009F3007A017B0012018A9004C6E02401F0A3E08F
:100A03003400F0A29240DC7A0A7B0012018AA2929F
:100A130040D1A29250FC9004BC7404F0A37400F083
:100A23009004C67400F0A37400F09004C6C3E0946D
:100A330090A3E09401402D9004BCE02401F0A3E0D6
:100A43003400F09004BCC3E09404A3E09400400A93
:100A53009004BC7401F0A37400F09004C67400F019
:100A6300A37400F0A2815003020B017A0A7B0012E7
:100A7300018AA2815003020B01A28150FC9004C899
:100A8300C3E09490A3E09401503A9004C8E0240199
:100A9300F0A3E03400F07A017B0012018AA28140C6
:100AA300DC7A0A7B0012018AA28140D1A28150FC28
:100AB3009004BE7404F0A37400F09004C87400F0B2
:100AC300A37400F09004C8C3E09490A3E0940140A1
:100AD3002D9004BEE02401F0A3E03400F09004BEA6
:100AE300C3E09403A3E09400400A9004BE7401F0B1
:100AF300A37400F09004C87400F0A37400F0D083D2
:100B0300D0820200FB75DAFA75DB0043E504D2B943
:100B1300D2AFD2DE43E40E0200FBC082C08374F77F
:100B230012027B9004E2C082C08385108285118308
:100B3300AC82AD83D083D08274091202477C097DD5
:100B430000851082851183AA82AB831201CC7409BC
:100B5300120291D083D0820200FBC082C08374F75B
:100B630012027B9004EBC082C083851082851183BF
:100B7300AC82AD83D083D08274091202477C097D95
:100B830000851082851183AA82AB831201CC74097C
:100B9300120291D083D0820200FBC082C08374F71B
:100BA30012027B9004F4C082C08385108285118376
:100BB300AC82AD83D083D08274091202477C097D55
:100BC30000851082851183AA82AB831201CC74093C
:100BD300120291D083D0820200FBC082C08374F7DB
:100BE30012027B9004FDC082C0838510828511832D
:100BF300AC82AD83D083D08274091202477C097D15
:100C030000851082851183AA82AB831201CC7409FB
:100C1300120291D083D0820200FB1201601201D232
:100C23001201D81201E47AC87B0012018A80209055
:100C330004BCE0F8A3E0F9E849600A9004BC74003E
:100C4300F0A37400F09004CA7401F0D2A0C297120A
:100C530001DE9004BCE0F508A3E0F509780812046E
:100C630016010003020D710C980CBF0CE60C9004E6
:100C7300BEE0F8A3E0F9E849600A9004BE7400F00E
:100C8300A37400F0759000D2911201F07A647B0096
:100C930012018A806A9004BEE0F8A3E0F9E8496093
:100CA3000A9004BE7400F0A37400F0759000D29013
:100CB3001201EA7A647B0012018A80439004BEE049
:100CC300F8A3E0F9E849600A9004BE7400F0A37445
:100CD30000F0759000D2941201F67A647B00120141
:100CE3008A801C9004BEE0F8A3E0F9E849600A900A
:100CF30004BE7400F0A37400F09004CB7401F012EE
:100D030001DE9004BEE0F508A3E0F50978081204BB
:100D130016010003520C320C210D520C470D9004A6
:100D2300BCE0F8A3E0F9E849600A9004BC7400F061
:100D3300A37400F09004CA7400F07590FFC2A0D2AF
:100D430097020C529004BCE0F8A3E0F9E849600A6A
:100D53009004BC7400F0A37400F07590009004CA72
:100D63007400F0C2A0C2971201FC7A647B001201E6
:100D73008A020C5274F41202AD8A088B098C0A8D14
:100D83000B53F1FE43F30C53F2F375868075C48065
:100D93007808120512000000000C000000B00400E7
:100DA30000EA0D60090000F20DC0120000FA0D8088
:100DB300250000020E403800000A0E004B0000120E
:100DC3000E807000001A0E00960000220E00E10053
:100DD300002A0E002C0100320E00C201003A0E0060
:100DE300840300420E4A0E75C23B75C505805E75CD
:100DF300C23B75C506805675C23B75C507804E75E7
:100E0300C23B75C508804675C2D875C508803E7556
:100E1300C23B75C509803675C2D875C509802E7564
:100E2300C23B75C50A802675C2D875C50A801E7572
:100E3300C23B75C50B801675C2D875C50B800E7580
:100E4300C2D875C50C800675C23B75C50A75C40248
:100E5300438640D2AA75C1009004367400F0900412
:100E6300377400F09004B97400F09004BA7400F081
:100E73009004387400F09004BB7400F07F04020304
:100E83001974F71202AD9004B9E0F89004BAE0C304
:100E930098501F9004B9E0F879009004BAE0FE7FFF
:100EA30000E8C39EF8E99FF9E824FFF8E934FFF965
:100EB30080379004BAE0F87900C3E498F8E499F92C
:100EC3009004B9E0FE7F00E82EF8E93FF9E8247FBB
:100ED300F8E93400F9C3E89CE99D5004D2F080029C
:100EE300C2F0A2F0E433F87900E84960067A007BA7
:100EF30000805E7800790080129004BAE02401F04B
:100F0300439A04E82401F8E93400F9C3E89CE99D15
:100F1300503B8A828B83E0C0E09004BAE0FE7F00FE
:100F230074392EF58274043FF583D0E0F08A828B06
:100F330083A3AA82AB839004BB7400F09004BAE04D
:100F4300C3947F40B49004BA7400F080B3E8FAE924
:100F5300FB7F0102031974F71202AD7E0A7F0312AD
:100F630001B412016C7901EEFAEFFB1201A88E8233
:100F73008F83E0C2E7F08E828F83E0640570528E28
:100F8300828F83E0F97A0B7B031201A88E828F8311
:100F9300A3E0A2E55004D2F08002C2F0A2F0E43351
:100FA3009004D6F0780E790388828983A3E0A2E7C0
:100FB300400302106B8E828F83A3A3A3E0F89003F8
:100FC30001E068600302106B9003027401F00210E9
:100FD3006B8E828F83E024F59004D3F08E828F830F
:100FE300E0F97A0B7B031201A88E828F83A3E0A220
:100FF300E55004D2F08002C2F0A2F0E4339004D6AC
:10100300F08E828F83A3A3A3A3A3A3A3A3E0F8A338
:10101300E0F99004CFE8F0A3E9F09004D47414F05D
:10102300A37403F09004D3E0F83395E0F99004D46B
:10103300E028F8A3E039F988828983E09004D7F0A7
:1010430088828983A3E0A2E750128E828F83A3E074
:1010530054DF644170069004D87401F08E828F834C
:10106300A3A3A3E09004CEF01201721201BA7F0190
:1010730002031974F71202ADEAFEEBFF120190E9C5
:10108300640170047901806F120172900308EEF01D
:10109300A3EFF09004D47400F0A37400F090030362
:1010A3007401F09004DA12022F90030412023B90B1
:1010B3000308E0F8A3E0F5838882A3A3A3A3E0F9E0
:1010C300120196900308E0F8A3E0F5838882E0FA22
:1010D300A3E0FB12019C900308E0F8A3E0F58388EA
:1010E30082A3A3E0FAA3E0FB1201A27A4E7B0112D2
:1010F30001C012016C79007F01020319C082C08311
:101103009003037401F01201AED083D0820200FB7E
:10111300C082C083906189E04460F090619074D58F
:10112300F09061FA7409F09061B27415F09061AEB9
:101133007400F01201BA7900D083D0820200FBC0A0
:1011430082C08375F005E9A424D490618FF0D08325
:10115300D0820200FBC082C083EA906174F0E4EBAA
:10116300FA906175F0D083D0820200FBC082C08305
:10117300EA906172F0E4EBFA906173F0D083D0826D
:101183000200FBC082C0838011E5D98A828B83F081
:101193008A828B83A3AA82AB8319E9C3940150E9A2
:1011A300D083D0820200FB75E1EC75E1E30200FB22
:1011B300C082C0839061A3E0C2E6F0539AFED0835D
:1011C300D0820200FBC082C0839061A3E0D2E6F02C
:1011D300439A01D083D0820200FBC082C083A2AFB6
:1011E300E433F8C2AF9003B4EAF0A3EBF0E8A2E073
:1011F30092AFD083D0820200FBC082C083790012F9
:101203000166D083D0820200FBEBC313FBEA13FA1F
:10121300EAF8EBF9E824FFFAE934FFFBE849601246
:1012230000000000000000000000000000000000BB
:1012330080DE0200FB74F71202ADEAFEEBFFEEF86C
:10124300EFF9E824FFFEE934FFFFE84960097AE893
:101253007B0312018480E77F01020319E5C65480F2
:10126300F853BEFBE59DA2E550FAE59DA2E240F4EA
:10127300007401697007744948F5C68005E9700276
:1012830088C6E5C6F8E59EFAE86A70F943BE04022B
:1012930000FBE914600B14600C14600D14600E80E5
:1012A3000ED290800AD2918006D2938002D2940209
:1012B30000FBC082C08312017E9004DE12022F1253
:1012C30001C612016CD083D0820200FBD2AF0200B0
:0612D300FBC2AF0200FBAC
:04000005000000E314
:00000001FF
